{
    "_format": "hh-sol-artifact-1",
    "contractName": "Transactions",
    "sourceName": "contracts/Transactions.sol",
    "abi": [
        {
            "anonymous": false,
            "inputs": [
                {
                    "indexed": false,
                    "internalType": "address",
                    "name": "from",
                    "type": "address"
                },
                {
                    "indexed": false,
                    "internalType": "address",
                    "name": "to",
                    "type": "address"
                },
                {
                    "indexed": false,
                    "internalType": "uint256",
                    "name": "amount",
                    "type": "uint256"
                },
                {
                    "indexed": false,
                    "internalType": "string",
                    "name": "message",
                    "type": "string"
                },
                {
                    "indexed": false,
                    "internalType": "uint256",
                    "name": "timestamp",
                    "type": "uint256"
                },
                {
                    "indexed": false,
                    "internalType": "string",
                    "name": "keyword",
                    "type": "string"
                }
            ],
            "name": "Transfer",
            "type": "event"
        },
        {
            "inputs": [
                {
                    "internalType": "address payable",
                    "name": "receiver",
                    "type": "address"
                },
                {
                    "internalType": "uint256",
                    "name": "amount",
                    "type": "uint256"
                },
                {
                    "internalType": "string",
                    "name": "message",
                    "type": "string"
                },
                {
                    "internalType": "string",
                    "name": "keyword",
                    "type": "string"
                }
            ],
            "name": "addToBlockChain",
            "outputs": [],
            "stateMutability": "nonpayable",
            "type": "function"
        },
        {
            "inputs": [],
            "name": "getAllTransactions",
            "outputs": [
                {
                    "components": [
                        {
                            "internalType": "address",
                            "name": "sender",
                            "type": "address"
                        },
                        {
                            "internalType": "address",
                            "name": "receiver",
                            "type": "address"
                        },
                        {
                            "internalType": "uint256",
                            "name": "amount",
                            "type": "uint256"
                        },
                        {
                            "internalType": "string",
                            "name": "message",
                            "type": "string"
                        },
                        {
                            "internalType": "uint256",
                            "name": "timestamp",
                            "type": "uint256"
                        },
                        {
                            "internalType": "string",
                            "name": "keyword",
                            "type": "string"
                        }
                    ],
                    "internalType": "struct Transactions.TransferStruct[]",
                    "name": "",
                    "type": "tuple[]"
                }
            ],
            "stateMutability": "view",
            "type": "function"
        },
        {
            "inputs": [],
            "name": "getTransactionCount",
            "outputs": [
                {
                    "internalType": "uint256",
                    "name": "",
                    "type": "uint256"
                }
            ],
            "stateMutability": "view",
            "type": "function"
        }
    ],
    "bytecode": "0x608060405234801561001057600080fd5b50610bfe806100206000396000f3fe608060405234801561001057600080fd5b50600436106100415760003560e01c806327506f53146100465780632e7700f014610064578063b2da096014610082575b600080fd5b61004e61009e565b60405161005b91906108b7565b60405180910390f35b61006c6102e1565b60405161007991906108d9565b60405180910390f35b61009c600480360381019061009791906105df565b6102ea565b005b60606001805480602002602001604051908101604052809291908181526020016000905b828210156102d857838290600052602060002090600602016040518060c00160405290816000820160009054906101000a900473ffffffffffffffffffffffffffffffffffffffff1673ffffffffffffffffffffffffffffffffffffffff1673ffffffffffffffffffffffffffffffffffffffff1681526020016001820160009054906101000a900473ffffffffffffffffffffffffffffffffffffffff1673ffffffffffffffffffffffffffffffffffffffff1673ffffffffffffffffffffffffffffffffffffffff168152602001600282015481526020016003820180546101ab90610a81565b80601f01602080910402602001604051908101604052809291908181526020018280546101d790610a81565b80156102245780601f106101f957610100808354040283529160200191610224565b820191906000526020600020905b81548152906001019060200180831161020757829003601f168201915b505050505081526020016004820154815260200160058201805461024790610a81565b80601f016020809104026020016040519081016040528092919081815260200182805461027390610a81565b80156102c05780601f10610295576101008083540402835291602001916102c0565b820191906000526020600020905b8154815290600101906020018083116102a357829003601f168201915b505050505081525050815260200190600101906100c2565b50505050905090565b60008054905090565b6000808154809291906102fc90610ab3565b919050555060016040518060c001604052803373ffffffffffffffffffffffffffffffffffffffff1681526020018673ffffffffffffffffffffffffffffffffffffffff16815260200185815260200184815260200142815260200183815250908060018154018082558091505060019003906000526020600020906006020160009091909190915060008201518160000160006101000a81548173ffffffffffffffffffffffffffffffffffffffff021916908373ffffffffffffffffffffffffffffffffffffffff16021790555060208201518160010160006101000a81548173ffffffffffffffffffffffffffffffffffffffff021916908373ffffffffffffffffffffffffffffffffffffffff1602179055506040820151816002015560608201518160030190805190602001906104399291906104aa565b506080820151816004015560a08201518160050190805190602001906104609291906104aa565b5050507f416cfa4330a4565f45c2fd2dd4826a83a37443aba2ce6f79477c7355afac35fa33858585428660405161049c96959493929190610848565b60405180910390a150505050565b8280546104b690610a81565b90600052602060002090601f0160209004810192826104d8576000855561051f565b82601f106104f157805160ff191683800117855561051f565b8280016001018555821561051f579182015b8281111561051e578251825591602001919060010190610503565b5b50905061052c9190610530565b5090565b5b80821115610549576000816000905550600101610531565b5090565b600061056061055b84610925565b6108f4565b90508281526020810184848401111561057857600080fd5b610583848285610a3f565b509392505050565b60008135905061059a81610b9a565b92915050565b600082601f8301126105b157600080fd5b81356105c184826020860161054d565b91505092915050565b6000813590506105d981610bb1565b92915050565b600080600080608085870312156105f557600080fd5b60006106038782880161058b565b9450506020610614878288016105ca565b935050604085013567ffffffffffffffff81111561063157600080fd5b61063d878288016105a0565b925050606085013567ffffffffffffffff81111561065a57600080fd5b610666878288016105a0565b91505092959194509250565b600061067e838361079a565b905092915050565b61068f81610a09565b82525050565b61069e816109bb565b82525050565b6106ad816109bb565b82525050565b60006106be82610965565b6106c88185610988565b9350836020820285016106da85610955565b8060005b8581101561071657848403895281516106f78582610672565b94506107028361097b565b925060208a019950506001810190506106de565b50829750879550505050505092915050565b600061073382610970565b61073d8185610999565b935061074d818560208601610a4e565b61075681610b89565b840191505092915050565b600061076c82610970565b61077681856109aa565b9350610786818560208601610a4e565b61078f81610b89565b840191505092915050565b600060c0830160008301516107b26000860182610695565b5060208301516107c56020860182610695565b5060408301516107d8604086018261082a565b50606083015184820360608601526107f08282610728565b9150506080830151610805608086018261082a565b5060a083015184820360a086015261081d8282610728565b9150508091505092915050565b610833816109ff565b82525050565b610842816109ff565b82525050565b600060c08201905061085d60008301896106a4565b61086a6020830188610686565b6108776040830187610839565b81810360608301526108898186610761565b90506108986080830185610839565b81810360a08301526108aa8184610761565b9050979650505050505050565b600060208201905081810360008301526108d181846106b3565b905092915050565b60006020820190506108ee6000830184610839565b92915050565b6000604051905081810181811067ffffffffffffffff8211171561091b5761091a610b5a565b5b8060405250919050565b600067ffffffffffffffff8211156109405761093f610b5a565b5b601f19601f8301169050602081019050919050565b6000819050602082019050919050565b600081519050919050565b600081519050919050565b6000602082019050919050565b600082825260208201905092915050565b600082825260208201905092915050565b600082825260208201905092915050565b60006109c6826109df565b9050919050565b60006109d8826109df565b9050919050565b600073ffffffffffffffffffffffffffffffffffffffff82169050919050565b6000819050919050565b6000610a1482610a1b565b9050919050565b6000610a2682610a2d565b9050919050565b6000610a38826109df565b9050919050565b82818337600083830152505050565b60005b83811015610a6c578082015181840152602081019050610a51565b83811115610a7b576000848401525b50505050565b60006002820490506001821680610a9957607f821691505b60208210811415610aad57610aac610b2b565b5b50919050565b6000610abe826109ff565b91507fffffffffffffffffffffffffffffffffffffffffffffffffffffffffffffffff821415610af157610af0610afc565b5b600182019050919050565b7f4e487b7100000000000000000000000000000000000000000000000000000000600052601160045260246000fd5b7f4e487b7100000000000000000000000000000000000000000000000000000000600052602260045260246000fd5b7f4e487b7100000000000000000000000000000000000000000000000000000000600052604160045260246000fd5b6000601f19601f8301169050919050565b610ba3816109cd565b8114610bae57600080fd5b50565b610bba816109ff565b8114610bc557600080fd5b5056fea2646970667358221220b195e0db539761e062b2a6c2874f8d7516f6c45255acf602652ea45e749cae2864736f6c63430008000033",
    "linkReferences": {},
    "deployedLinkReferences": {}
}